:020000040800F2
:1000000000500020A5210008B5070008C10700081E
:10001000C7070008CD070008D3070008000000004C
:10002000000000000000000000000000D9070008E8
:10003000E507000800000000F1070008FD070008C0
:10004000ED210008ED210008ED210008ED21000858
:10005000ED210008ED210008ED210008ED21000848
:10006000ED210008ED210008ED210008ED21000838
:10007000ED210008ED210008ED210008ED21000828
:10008000ED210008ED210008ED210008ED21000818
:10009000ED210008ED210008ED210008ED21000808
:1000A000ED210008ED210008ED210008ED210008F8
:1000B000ED210008ED210008ED210008ED210008E8
:1000C000ED210008ED210008ED210008ED210008D8
:1000D000ED210008ED210008ED210008ED210008C8
:1000E000ED210008ED210008ED21000800000000CE
:1000F0000000000000000000000000000000000000
:0C01000000000000000000005FF808F1A3
:10010C0010B5054C237833B9044B13B10448AFF345
:10011C0000800123237010BD0C00002000000000A3
:10012C004822000808B5034B1BB103490348AFF341
:10013C00008008BD000000001000002048220008CC
:10014C0080B58CB000AF00F08DFB00F0C9F800F06A
:10015C008DF900F00BF900F05FF9594800F0CCFD77
:10016C00584B00221A700221574801F0A9F9034696
:10017C00DAB2544B1B781344DAB2524B1A70042186
:10018C00514801F09DF903465B00DAB24D4B1B78E8
:10019C001344DAB24B4B1A7080214B4801F090F9A2
:1001AC0003469B00DAB2474B1B781344DAB2454B3B
:1001BC001A700121454801F083F90346DB00DAB2DD
:1001CC00404B1B781344DAB23E4B1A7002213F4865
:1001DC0001F076F903461B01DAB23A4B1B78134453
:1001EC00DAB2384B1A700421384801F069F9034629
:1001FC005B01DAB2334B1B781344DAB2314B1A7011
:10020C004FF48061314801F05BF903469B01DAB28F
:10021C002C4B1B781344DAB22A4B1A704FF4006142
:10022C002A4801F04DF90346DB01DAB2254B1B7865
:10023C001344DAB2234B1A702549264800F0A8F96A
:10024C0000211F4800F0ADFEF862FB6A002B10D0B5
:10025C003B1D07F10C020021194800F091FD0346EB
:10026C001A461D4B1A701C4B1B78002B01D1BB6915
:10027C00022B0421144801F023F9034687F82B3094
:10028C0097F82B30002B05D0012208210E4801F0E5
:10029C002EF904E0002208210B4801F028F9102166
:1002AC00094801F03CF92021074801F038F90B49C5
:1002BC00084800F06DF94FF4FA7000F035FBBFE719
:1002CC0028000020B800002000080140000C01406C
:1002DC006022000850000020B900002070220008A5
:1002EC0080B590B000AF07F1180328220021184602
:1002FC0001F09CFF3B1D00221A605A609A60DA6084
:10030C001A610123BB614FF48033FB6100233B6214
:10031C000123BB6202237B634FF48033BB634FF436
:10032C00E013FB6307F11803184601F011F90346BB
:10033C00002B01D000F054F90F237B600223BB602B
:10034C000023FB604FF480633B6100237B613B1D0A
:10035C000221184601F07CFB0346002B01D000F073
:10036C003FF900BF4037BD4680BD000080B500AFEF
:10037C00264B274A1A60254B10225A60234B002229
:10038C009A60224B0022DA60204B00221A611F4B2C
:10039C0000225A611D4B00221A761C4B00225A7601
:1003AC001A4B00229A76194B0022DA76174B002250
:1003BC001A77164B00225A77144800F0D9FA0346E4
:1003CC00002B01D000F00CF9124B00221A61114BDA
:1003DC0000229A610F4B0122DA610E4B00221A6047
:1003EC000C4B00225A600B4B00229A60094B0022E6
:1003FC00DA60084B00225A61064B01221A62054949
:10040C00024800F0B0FB00BF80BD00BF28000020F8
:10041C00006400409000002080B500AF114B124AE0
:10042C001A60104B4FF4E1325A600E4B00229A6066
:10043C000C4B0022DA600B4B00221A61094B0C2288
:10044C005A61084B00229A61064B0022DA6105487A
:10045C0001F098FC0346002B01D000F0C1F800BF5E
:10046C0080BD00BF500000200038014080B588B02E
:10047C0000AF07F1100300221A605A609A60DA602C
:10048C00404B9B693F4A43F0200393613D4B9B6972
:10049C0003F02003FB60FB683A4B9B69394A43F03D
:1004AC0004039361374B9B6903F00403BB60BB6887
:1004BC00344B9B69334A43F008039361314B9B697E
:1004CC0003F008037B607B68002238212E4801F082
:1004DC000EF801224FF440512C4801F008F8862305
:1004EC003B6100237B610223BB6107F110031946BA
:1004FC00254800F061FE38233B6101237B6100231A
:10050C00BB610323FB6107F1100319461E4800F081
:10051C0053FE40233B6100237B610023BB6107F149
:10052C0010031946184800F047FE40F607433B619C
:10053C0000237B610223BB6107F1100319461348AA
:10054C0000F03AFE4FF440533B6111237B610123D1
:10055C00BB610323FB6107F1100319460B4800F044
:10056C002BFEE0233B6100237B610023BB6107F181
:10057C0010031946054800F01FFE00BF2037BD468A
:10058C0080BD00BF0010024000080140000C01407B
:10059C0080B584B000AF786039600023BB8107E080
:1005AC00BB895A1CBA811A463B6813441B78FB73EF
:1005BC00FB7B0D2BF4D1BA894FF4FA733968786848
:1005CC0001F02DFC0A233B7207F108014FF4FA737A
:1005DC000122786801F023FC00BF1037BD4680BDB6
:1005EC0080B400AF00BFBD4680BC704780B485B0FE
:1005FC0000AF154B9B69144A43F001039361124BF6
:10060C009B6903F00103BB60BB680F4BDB690E4AAF
:10061C0043F08053D3610C4BDB6903F080537B6058
:10062C007B680A4B5B68FB60FB6823F0E063FB6054
:10063C00FB6843F00073FB60044AFB68536000BF27
:10064C001437BD4680BC70470010024000000140CA
:10065C0080B58AB000AF786007F1140300221A60ED
:10066C005A609A60DA607B681B68254A934243D1D2
:10067C00244BDB69234A43F00073D361214BDB69C4
:10068C0003F000733B613B691E4B9B691D4A43F0B1
:10069C00080393611B4B9B6903F00803FB60FB6829
:1006AC004FF480737B610023BB610023FB6107F176
:1006BC0014031946144800F07FFD4FF400737B615E
:1006CC000223BB6103233B6207F1140319460E4856
:1006DC0000F072FD0D4B5B687B627B6A23F4C043B8
:1006EC007B627B6A43F0E0637B627B6A43F480430A
:1006FC007B62064A7B6A536000BF2837BD4680BDCB
:10070C000064004000100240000C01400000014059
:10071C0080B588B000AF786007F1100300221A6032
:10072C005A609A60DA607B681B681C4A934231D12C
:10073C001B4B9B691A4A43F480439361184B9B698A
:10074C0003F48043FB60FB68154B9B69144A43F030
:10075C0004039361124B9B6903F00403BB60BB68F9
:10076C004FF400733B6102237B610323FB6107F1B0
:10077C00100319460B4800F01FFD4FF480633B61DA
:10078C0000237B610023BB6107F110031946054868
:10079C0000F012FD00BF2037BD4680BD003801407F
:1007AC00001002400008014080B400AF00BFBD46FD
:1007BC0080BC704780B400AFFEE780B400AFFEE7AA
:1007CC0080B400AFFEE780B400AFFEE780B400AFAA
:1007DC0000BFBD4680BC704780B400AF00BFBD46B3
:1007EC0080BC704780B400AF00BFBD4680BC704772
:1007FC0080B500AF00F07CF800BF80BD80B400AFC6
:10080C00154B1B68144A43F001031360124B5A68D2
:10081C001149124B13404B600F4B1B680E4A23F0CF
:10082C00847323F4803313600B4B1B680A4A23F444
:10083C0080231360084B5B68074A23F4FE03536064
:10084C00054B4FF41F029A60054B4FF000629A6003
:10085C0000BFBD4680BC7047001002400000FFF88E
:10086C0000ED00E080B500AF084B1B68074A43F071
:10087C0010031360032000F06BFC002000F008F85C
:10088C00FFF7B4FE0023184680BD00BF00200240D5
:10089C0080B582B000AF7860124B1A68124B1B788F
:1008AC0019464FF47A73B3FBF1F3B2FBF3F318462A
:1008BC0000F075FC0346002B01D001230EE07B6891
:1008CC000F2B0AD8002279684FF0FF3000F04BFC58
:1008DC00064A7B681360002300E0012318460837A2
:1008EC00BD4680BD00000020080000200400002050
:1008FC0080B400AF054B1B781A46054B1B6813449C
:10090C00034A136000BFBD4680BC7047080000203E
:10091C00BC00002080B400AF024B1B681846BD46DB
:10092C0080BC7047BC00002080B584B000AF7860FC
:10093C00FFF7F0FFB8607B68FB60FB68B3F1FF3F2B
:10094C0005D00A4B1B781A46FB681344FB6000BFAA
:10095C00FFF7E0FF0246BB68D31AFA689A42F7D851
:10096C0000BF00BF1037BD4680BD00BF080000208F
:10097C0080B584B000AF78607B68002B01D1012377
:10098C00EDE07B6893F82030DBB2002B02D1786865
:10099C00FFF75EFE7B681B681A687B681B6822F099
:1009AC0002021A60FFF7B6FFF86012E0FFF7B2FF21
:1009BC000246FB68D31A0A2B0BD97B685B6A43F49B
:1009CC0000327B685A627B68052283F82020012361
:1009DC00C5E07B681B685B6803F00203002BE5D164
:1009EC007B681B681A687B681B6842F001021A60FE
:1009FC00FFF790FFF86012E0FFF78CFF0246FB68F0
:100A0C00D31A0A2B0BD97B685B6A43F400327B68E0
:100A1C005A627B68052283F8202001239FE07B68C3
:100A2C001B685B6803F00103002BE5D07B681B7E21
:100A3C00012B08D17B681B681A687B681B6842F025
:100A4C0080021A6007E07B681B681A687B681B6869
:100A5C0022F080021A607B685B7E012B08D17B68D8
:100A6C001B681A687B681B6842F040021A6007E03A
:100A7C007B681B681A687B681B6822F040021A604E
:100A8C007B689B7E012B08D17B681B681A687B688E
:100A9C001B6842F020021A6007E07B681B681A682A
:100AAC007B681B6822F020021A607B68DB7E012BBE
:100ABC0008D17B681B681A687B681B6822F01002DF
:100ACC001A6007E07B681B681A687B681B6842F039
:100ADC0010021A607B681B7F012B08D17B681B6896
:100AEC001A687B681B6842F008021A6007E07B6892
:100AFC001B681A687B681B6822F008021A607B6806
:100B0C005B7F012B08D17B681B681A687B681B68AC
:100B1C0042F004021A6007E07B681B681A687B6865
:100B2C001B6822F004021A607B689A687B68DB6899
:100B3C001A437B681B691A437B685B6942EA0301B1
:100B4C007B685B685A1E7B681B680A43DA617B68AA
:100B5C0000225A627B68012283F820200023184669
:100B6C001037BD4680BD80B487B000AF7860396067
:100B7C007B681B687B617B6893F82030FB74FB7C83
:100B8C00012B03D0FB7C022B40F0AA807B69D3F8AD
:100B9C00003243F001027B69C3F800223B685B69B9
:100BAC0003F01F03012202FA03F3FB607B69D3F805
:100BBC001C22FB68DB431A407B69C3F81C223B6890
:100BCC00DB69002B23D17B69D3F80C22FB68DB4358
:100BDC001A407B69C3F80C223B68DB6819043B683C
:100BEC005B689BB23A68526919437B69483243F897
:100BFC0032103B689B6819043B681B689AB23B68CF
:100C0C005B690A4379694833DB000B445A603B68E3
:100C1C00DB69012B22D17B69D3F80C22FB681A43C8
:100C2C007B69C3F80C223B681B6819043B685B6842
:100C3C009BB23A68526919437B69483243F83210C7
:100C4C003B689B6819043B68DB689AB23B685B693C
:100C5C000A4379694833DB000B445A603B689B6953
:100C6C00002B09D17B69D3F80422FB68DB431A40C3
:100C7C007B69C3F8042207E07B69D3F80422FB6884
:100C8C001A437B69C3F804223B681B69002B09D10A
:100C9C007B69D3F81422FB68DB431A407B69C3F8E9
:100CAC00142207E07B69D3F81422FB681A437B6992
:100CBC00C3F814223B681B6A012B07D17B69D3F85C
:100CCC001C22FB681A437B69C3F81C227B69D3F88E
:100CDC00003223F001027B69C3F80022002306E0F6
:100CEC007B685B6A43F480227B685A620123184656
:100CFC001C37BD4680BC704780B584B000AF7860AF
:100D0C007B6893F82030DBB2012B2ED17B6802225A
:100D1C0083F820207B681B681A687B681B6822F0AC
:100D2C0001021A60FFF7F6FDF86012E0FFF7F2FD22
:100D3C000246FB68D31A0A2B0BD97B685B6A43F417
:100D4C0000327B685A627B68052283F820200123DD
:100D5C0012E07B681B685B6803F00103002BE5D194
:100D6C007B6800225A62002306E07B685B6A43F4CE
:100D7C0000227B685A62012318461037BD4680BD9D
:100D8C0080B487B000AFF860B9607A603B60FB68F4
:100D9C0093F82030FB75FB7D012B03D0FB7D022BE0
:100DAC0040F0F380BB68002B0ED1FB681B68DB683E
:100DBC0003F00303002B16D1FB685B6A43F40012AB
:100DCC00FB685A620123E7E0FB681B681B6903F0B0
:100DDC000303002B07D1FB685B6A43F40012FB682A
:100DEC005A620123D8E0FB681A68BB681B331B01ED
:100DFC0013441B6803F004027B689A607B689B6851
:100E0C00002B0CD1FB681A68BB681B331B01134405
:100E1C001B685B0DC3F30A027B681A600BE0FB686E
:100E2C001A68BB681B331B0113441B68DB0823F0D7
:100E3C0060427B685A60FB681A68BB681B331B01F5
:100E4C0013441B6803F002027B68DA60FB681A68C3
:100E5C00BB681B331B01134404331B6803F00F02E4
:100E6C007B681A61FB681A68BB681B331B0113444F
:100E7C0004331B681B0ADAB27B689A61FB681A6838
:100E8C00BB681B331B01134404331B681B0C9AB245
:100E9C007B685A61FB681A68BB681B01134403F535
:100EAC00DC731B68DAB23B681A70FB681A68BB68A3
:100EBC001B01134403F5DC731B681A0A3B680133EE
:100ECC00D2B21A70FB681A68BB681B01134403F595
:100EDC00DC731B681A0C3B680233D2B21A70FB68C5
:100EEC001A68BB681B01134403F5DC731B681A0EEC
:100EFC003B680333D2B21A70FB681A68BB681B01DB
:100F0C00134403F5DE731A683B680433D2B21A70CB
:100F1C00FB681A68BB681B01134403F5DE731B687E
:100F2C001A0A3B680533D2B21A70FB681A68BB68A0
:100F3C001B01134403F5DE731B681A0C3B68063364
:100F4C00D2B21A70FB681A68BB681B01134403F514
:100F5C00DE731B681A0E3B680733D2B21A70BB687B
:100F6C00002B08D1FB681B68DA68FB681B6842F031
:100F7C002002DA6007E0FB681B681A69FB681B68D3
:100F8C0042F020021A61002306E0FB685B6A43F41E
:100F9C008022FB685A62012318461C37BD4680BC70
:100FAC00704780B485B000AF786039600023FB6077
:100FBC007B6893F82030FB72FB7A012B02D0FB7A12
:100FCC00022B0FD13B68002B06D17B681B68DB68BA
:100FDC0003F00303FB6005E07B681B681B6903F0EF
:100FEC000303FB60FB6818461437BD4680BC704792
:100FFC0080B485B000AF78607B6803F00703FB60BA
:10100C000C4BDB68BB60BA684FF6FF031340BB6048
:10101C00FB681A02BB68134343F0BF6343F400330D
:10102C00BB60044ABB68D36000BF1437BD4680BCAC
:10103C00704700BF00ED00E080B400AF044BDB68EC
:10104C001B0A03F007031846BD4680BC704700BF5F
:10105C0000ED00E080B483B000AF03463960FB7153
:10106C0097F90730002B0ADB3B68DAB20C4997F989
:10107C0007301201D2B20B4483F800230AE03B681C
:10108C00DAB20849FB7903F00F03043B1201D2B228
:10109C000B441A7600BF0C37BD4680BC704700BFAE
:1010AC0000E100E000ED00E080B489B000AFF86032
:1010BC00B9607A60FB6803F00703FB61FB69C3F15D
:1010CC000703042B28BF0423BB61FB690433062BE5
:1010DC0002D9FB69033B00E000237B614FF0FF3238
:1010EC00BB6902FA03F3DA43BB681A407B699A4086
:1010FC004FF0FF317B6901FA03F3D9437B680B4056
:10110C00134318462437BD4680BC704780B582B067
:10111C0000AF78607B68013BB3F1807F01D3012382
:10112C000FE00A4A7B68013B53600F214FF0FF3000
:10113C00FFF790FF054B00229A60044B07221A60C0
:10114C00002318460837BD4680BD00BF10E000E004
:10115C0080B582B000AF78607868FFF749FF00BFB8
:10116C000837BD4680BD80B586B000AF0346B96078
:10117C007A60FB7300237B61FFF75EFF78617A680E
:10118C00B9687869FFF790FF024697F90F3011465E
:10119C001846FFF75FFF00BF1837BD4680BD80B50E
:1011AC0082B000AF78607868FFF7B0FF034618464E
:1011BC000837BD4680BD000080B48BB000AF7860AE
:1011CC00396000237B6200233B6269E101227B6A68
:1011DC0002FA03F3FB613B681B68FA691340BB61BD
:1011EC00BA69FB699A4240F058813B685B689A4A3D
:1011FC0093425ED0984A934275D8984A934258D0FD
:10120C00964A93426FD8964A934252D0944A93424C
:10121C0069D8944A93424CD0924A934263D8924AEA
:10122C00934246D0904A93425DD8122B2AD8122B67
:10123C0059D801A252F823F0BF12000899120008E5
:10124C00AB120008ED120008F3120008F3120008AC
:10125C00F3120008F3120008F3120008F31200084E
:10126C00F3120008F3120008F3120008F31200083E
:10127C00F3120008F3120008F3120008A112000880
:10128C00B5120008794A934213D02CE03B68DB6816
:10129C003B6229E03B68DB6804333B6224E03B683B
:1012AC00DB6808333B621FE03B68DB680C333B6256
:1012BC001AE03B689B68002B02D104233B6213E0CD
:1012CC003B689B68012B05D108233B627B68FA695C
:1012DC001A6109E008233B627B68FA695A6103E0F2
:1012EC0000233B6200E000BFBB69FF2B01D87B6889
:1012FC0001E07B6804337B61BB69FF2B02D87B6AFE
:10130C009B0002E07B6A083B9B003B617B691A688F
:10131C000F213B6901FA03F3DB431A40396A3B693D
:10132C0001FA03F31A437B691A603B685B6803F0AC
:10133C008053002B00F0B1804D4B9B694C4A43F01D
:10134C00010393614A4B9B6903F00103BB60BB68CB
:10135C00484A7B6A9B08023352F82330FB607B6A55
:10136C0003F003039B000F2202FA03F3DB43FA683A
:10137C001340FB607B68404A934213D07B683F4A22
:10138C0093420DD07B683E4A934207D07B683D4A1E
:10139C00934201D1032306E0042304E0022302E07C
:1013AC00012300E000237A6A02F0030292009340CA
:1013BC00FA681343FB602F497B6A9B080233FA6877
:1013CC0041F823203B685B6803F48033002B06D084
:1013DC002D4B1A682C49BB6913430B6006E02A4B52
:1013EC001A68BB69DB43284913400B603B685B6898
:1013FC0003F40033002B06D0234B5A682249BB69F7
:10140C0013434B6006E0204B5A68BB69DB431E4913
:10141C0013404B603B685B6803F48013002B06D0D1
:10142C00194B9A681849BB6913438B6006E0164B3D
:10143C009A68BB69DB43144913408B603B685B685B
:10144C0003F40013002B21D00F4BDA680E49BB6953
:10145C001343CB6021E000BF0000321000003110BC
:10146C0000002210000021100000121000001110CA
:10147C00001002400000014000080140000C014037
:10148C000010014000140140000401400B4BDA68CD
:10149C00BB69DB4309491340CB607B6A01337B6238
:1014AC003B681A687B6A22FA03F3002B7FF48EAE3A
:1014BC0000BF00BF2C37BD4680BC70470004014004
:1014CC0080B485B000AF78600B467B807B689A68EF
:1014DC007B881340002B02D00123FB7301E0002317
:1014EC00FB73FB7B18461437BD4680BC704780B439
:1014FC0083B000AF78600B467B8013467B707B78A3
:10150C00002B03D07A887B681A6103E07B881A046D
:10151C007B681A6100BF0C37BD4680BC704780B435
:10152C0083B000AF78600B467B807B68DA687B8881
:10153C001340002B03D07A887B685A6102E07A88CA
:10154C007B681A6100BF0C37BD4680BC7047000039
:10155C0080B586B000AF78607B68002B01D1012389
:10156C006CE27B681B6803F00103002B00F08780A2
:10157C00924B5B6803F00C03042B0CD08F4B5B6815
:10158C0003F00C03082B12D18C4B5B6803F48033F3
:10159C00B3F5803F0BD1894B1B6803F40033002B50
:1015AC006CD07B685B68002B68D1012346E27B68BA
:1015BC005B68B3F5803F06D1804B1B687F4A43F4D0
:1015CC00803313602EE07B685B68002B0CD17B4B67
:1015DC001B687A4A23F480331360784B1B68774A74
:1015EC0023F4802313601DE07B685B68B3F5A02FA8
:1015FC000CD1724B1B68714A43F4802313606F4B00
:10160C001B686E4A43F4803313600BE06B4B1B6812
:10161C006A4A23F480331360684B1B68674A23F4CF
:10162C00802313607B685B68002B13D0FFF772F983
:10163C00386108E0FFF76EF902463B69D31A642B58
:10164C0001D90323FAE15D4B1B6803F40033002B33
:10165C00F0D014E0FFF75EF9386108E0FFF75AF9B3
:10166C0002463B69D31A642B01D90323E6E1534BA1
:10167C001B6803F40033002BF0D100E000BF7B6843
:10168C001B6803F00203002B63D04C4B5B6803F028
:10169C000C03002B0BD0494B5B6803F00C03082B9D
:1016AC001CD1464B5B6803F48033002B16D1434BA3
:1016BC001B6803F00203002B05D07B681B69012B10
:1016CC0001D00123BAE13D4B1B6823F0F8027B6883
:1016DC005B69DB00394913430B603AE07B681B699B
:1016EC00002B20D0364B01221A60FFF713F938611A
:1016FC0008E0FFF70FF902463B69D31A022B01D918
:10170C0003239BE12D4B1B6803F00203002BF0D04D
:10171C002A4B1B6823F0F8027B685B69DB002749C6
:10172C0013430B6015E0264B00221A60FFF7F2F80A
:10173C00386108E0FFF7EEF802463B69D31A022B3A
:10174C0001D903237AE11D4B1B6803F00203002B24
:10175C00F0D17B681B6803F00803002B3AD07B6840
:10176C009B69002B19D0174B01221A60FFF7D2F896
:10177C00386108E0FFF7CEF802463B69D31A022B1A
:10178C0001D903235AE10D4B5B6A03F00203002BD2
:10179C00F0D0012000F0D8FA1CE00A4B00221A60AD
:1017AC00FFF7B8F838610FE0FFF7B4F802463B6971
:1017BC00D31A022B08D9032340E100BF00100240CA
:1017CC0000004242800442429E4B5B6A03F00203DB
:1017DC00002BE9D17B681B6803F00403002B00F09D
:1017EC00A6800023FB75974BDB6903F08053002B1D
:1017FC000DD1944BDB69934A43F08053D361914BE9
:10180C00DB6903F08053BB60BB680123FB758E4B17
:10181C001B6803F48073002B18D18B4B1B688A4A0E
:10182C0043F480731360FFF775F8386108E0FFF735
:10183C0071F802463B69D31A642B01D90323FDE0EE
:10184C00814B1B6803F48073002BF0D07B68DB6842
:10185C00012B06D17B4B1B6A7A4A43F001031362BE
:10186C002DE07B68DB68002B0CD1764B1B6A754A2C
:10187C0023F001031362734B1B6A724A23F00403B7
:10188C0013621CE07B68DB68052B0CD16D4B1B6A6B
:10189C006C4A43F0040313626A4B1B6A694A43F0B7
:1018AC00010313620BE0674B1B6A664A23F00103CA
:1018BC001362644B1B6A634A23F0040313627B6854
:1018CC00DB68002B15D0FFF725F838610AE0FFF72D
:1018DC0021F802463B69D31A41F28832934201D96E
:1018EC000323ABE0574B1B6A03F00203002BEED033
:1018FC0014E0FFF70FF838610AE0FFF70BF8024627
:10190C003B69D31A41F28832934201D9032395E003
:10191C004C4B1B6A03F00203002BEED1FB7D012B19
:10192C0005D1484BDB69474A23F08053D3617B6870
:10193C00DB69002B00F08180424B5B6803F00C03E9
:10194C00082B61D07B68DB69022B46D13F4B002210
:10195C001A60FEF7DFFF386108E0FEF7DBFF024696
:10196C003B69D31A022B01D9032367E0354B1B6863
:10197C0003F00073002BF0D17B681B6AB3F5803F3A
:10198C0008D1304B5B6823F400327B689B682D498F
:10199C0013434B602B4B5B6823F474127B68196AFE
:1019AC007B685B6A0B43274913434B60274B01222F
:1019BC001A60FEF7AFFF386108E0FEF7ABFF024696
:1019CC003B69D31A022B01D9032337E01D4B1B684B
:1019DC0003F00073002BF0D02FE01C4B00221A6098
:1019EC00FEF798FF386108E0FEF794FF02463B696A
:1019FC00D31A022B01D9032320E0124B1B6803F0EE
:101A0C000073002BF0D118E07B68DB69012B01D14E
:101A1C00012313E00B4B5B68FB60FB6803F4803223
:101A2C007B681B6A9A4206D1FB6803F470127B68D0
:101A3C005B6A9A4201D0012300E000231846183754
:101A4C00BD4680BD00100240007000406000424264
:101A5C0080B584B000AF786039607B68002B01D111
:101A6C000123D0E06A4B1B6803F007033A689A42E3
:101A7C0010D9674B1B6823F0070265493B68134379
:101A8C000B60634B1B6803F007033A689A4201D062
:101A9C000123B8E07B681B6803F00203002B20D005
:101AAC007B681B6803F00403002B05D0594B5B6863
:101ABC00584A43F4E06353607B681B6803F00803E7
:101ACC00002B05D0534B5B68524A43F46053536070
:101ADC00504B5B6823F0F0027B689B684D491343C5
:101AEC004B607B681B6803F00103002B40D07B68C4
:101AFC005B68012B07D1474B1B6803F40033002BA9
:101B0C0015D101237FE07B685B68022B07D1414B29
:101B1C001B6803F00073002B09D1012373E03D4BCC
:101B2C001B6803F00203002B01D101236BE0394B3E
:101B3C005B6823F003027B685B68364913434B6098
:101B4C00FEF7E8FEF8600AE0FEF7E4FE0246FB68EA
:101B5C00D31A41F28832934201D9032353E02D4B1F
:101B6C005B6803F00C027B685B689B009A42EBD1CC
:101B7C00274B1B6803F007033A689A4210D2244B98
:101B8C001B6823F0070222493B6813430B60204B70
:101B9C001B6803F007033A689A4201D0012332E034
:101BAC007B681B6803F00403002B08D0194B5B689F
:101BBC0023F4E0627B68DB68164913434B607B6857
:101BCC001B6803F00803002B09D0124B5B6823F44D
:101BDC0060527B681B69DB000E4913434B6000F0BD
:101BEC0021F802460B4B5B681B0903F00F030A49F3
:101BFC00CB5C22FA03F3094A1360094B1B681846A5
:101C0C00FEF746FE002318461037BD4680BD00BFC8
:101C1C000020024000100240882200080000002032
:101C2C000400002090B48AB000AF2A4B3C1D0FCBAF
:101C3C0084E80F0040F201233B800023FB6100236A
:101C4C00BB6100237B6200237B6100233B62224B40
:101C5C005B68FB61FB6903F00C03042B02D0082BBF
:101C6C0003D02DE01D4B3B622DE0FB699B0C03F078
:101C7C000F0307F12802134413F8243C7B61FB6922
:101C8C0003F48033002B13D0134B5B685B0C03F015
:101C9C00010307F12802134413F8283CBB617B694C
:101CAC000E4A02FB03F2BB69B2FBF3F37B6204E066
:101CBC007B690B4A02FB03F37B627B6A3B6202E0AB
:101CCC00064B3B6200BF3B6A18462837BD4690BCAA
:101CDC00704700BF782200080010024000127A0002
:101CEC0000093D0080B400AF024B1B681846BD468E
:101CFC0080BC70470000002080B500AFFFF7F2FFFA
:101D0C000246054B5B681B0A03F007030349CB5CD7
:101D1C0022FA03F3184680BD0010024098220008F6
:101D2C0080B500AFFFF7DEFF0246054B5B68DB0AB0
:101D3C0003F007030349CB5C22FA03F3184680BD7A
:101D4C00001002409822000880B485B000AF786083
:101D5C000A4B1B680A4AA2FB03235B0A7A6802FB44
:101D6C0003F3FB6000BFFB685A1EFA60002BF9D12D
:101D7C0000BF00BF1437BD4680BC70470000002078
:101D8C00D34D621080B582B000AF78607B68002BB9
:101D9C0001D101233FE07B6893F83930DBB2002B93
:101DAC0006D17B68002283F838207868FEF7B0FCF7
:101DBC007B68242283F839207B681B68DA687B688F
:101DCC001B6822F40052DA60786800F00BF97B682B
:101DDC001B681A697B681B6822F490421A617B6845
:101DEC001B685A697B681B6822F02A025A617B685F
:101DFC001B68DA687B681B6842F40052DA607B6807
:101E0C000022DA637B68202283F839207B68202249
:101E1C0083F83A20002318460837BD4680BD80B5AC
:101E2C0088B002AFF860B9603B601346FB800023BA
:101E3C007B61FB6893F83930DBB2202B40F0838058
:101E4C00BB68002B02D0FB88002B01D101237BE067
:101E5C00FB6893F83830012B01D1022374E0FB6846
:101E6C00012283F83820FB680022DA63FB68212208
:101E7C0083F83920FEF74EFD7861FB68FA889A8466
:101E8C00FB68FA88DA8442E0FB68DB8C9BB2013B8E
:101E9C009AB2FB68DA84FB689B68B3F5805F22D149
:101EAC003B6800937B6900228021F86800F050F8B1
:101EBC000346002B01D0032346E0BB683B613B6922
:101ECC001B881A46FB681B68C2F308025A60FB6841
:101EDC001B69002B03D1BB680233BB6017E0BB68E6
:101EEC000133BB6013E03B6800937B6900228021C7
:101EFC00F86800F02DF80346002B01D0032323E0F3
:101F0C00BB685A1CBA601A78FB681B685A60FB687D
:101F1C00DB8C9BB2002BB7D13B6800937B69002212
:101F2C004021F86800F014F80346002B01D003237D
:101F3C000AE0FB68202283F83920FB68002283F832
:101F4C003820002300E0022318461837BD4680BD18
:101F5C0080B584B000AFF860B9603B601346FB718C
:101F6C002CE0BB69B3F1FF3F28D0BB69002B07D035
:101F7C00FEF7D0FC02463B68D31ABA699A421DD2CE
:101F8C00FB681B68DA68FB681B6822F4D072DA60A5
:101F9C00FB681B685A69FB681B6822F001025A61D6
:101FAC00FB68202283F83920FB68202283F83A2032
:101FBC00FB68002283F8382003230FE0FB681B68C2
:101FCC001A68BB681340BA689A420CBF01230023FD
:101FDC00DBB21A46FB799A42C3D00023184610375D
:101FEC00BD4680BD80B584B000AF78607B681B684F
:101FFC001B6923F440517B68DA687B681B680A43D1
:10200C001A617B689A687B681B691A437B685B69F9
:10201C001343FB607B681B68DB6823F4B05323F02D
:10202C000C037A681268F9680B43D3607B681B68F1
:10203C005B6923F440717B689A697B681B680A436F
:10204C005A617B681B68524A93424ED1FFF768FE77
:10205C00B860BA6813469B0013449A001A447B6814
:10206C005B689B00B2FBF3F34A4AA2FB03235B09B8
:10207C001901BA6813469B0013449A001A447B68F2
:10208C005B689B00B2FBF3F2424BA3FB02035B09C0
:10209C00642000FB03F3D31A1B0132333D4AA2FB2D
:1020AC0003235B0903F0F0031944BA6813469B0041
:1020BC0013449A001A447B685B689B00B2FBF3F2F2
:1020CC00344BA3FB02035B09642000FB03F3D31A1C
:1020DC001B0132332F4AA2FB03235B0903F00F02CF
:1020EC007B681B680A449A604DE0FFF705FEB860F8
:1020FC00BA6813469B0013449A001A447B685B68C9
:10210C009B00B2FBF3F3234AA2FB03235B091901E7
:10211C00BA6813469B0013449A001A447B685B68A8
:10212C009B00B2FBF3F21B4BA3FB02035B09642085
:10213C0000FB03F3D31A1B013233164AA2FB032311
:10214C005B0903F0F0031944BA6813469B0013446F
:10215C009A001A447B685B689B00B2FBF3F20D4B50
:10216C00A3FB02035B09642000FB03F3D31A1B01DE
:10217C003233084AA2FB03235B0903F00F027B688E
:10218C001B680A449A6000BF1037BD4680BD00BF73
:10219C00003801401F85EB51002103E00B4B5B58CD
:1021AC00435004310A480B4B42189A42F6D30A4A60
:1021BC0002E0002342F8043B084B9A42F9D3FEF7A5
:1021CC001DFB00F00FF8FDF7BBFF7047A8220008BD
:1021DC00000000200C0000200C000020C00000209B
:1021EC00FEE7000070B500260C4D0D4C641BA410CE
:1021FC00A64209D100F022F800260A4D0A4C641BB5
:10220C00A410A64205D170BD55F8043B9847013681
:10221C00EEE755F8043B98470136F2E7A022000898
:10222C00A0220008A0220008A422000803460244B1
:10223C00934200D1704703F8011BF9E7F8B500BFD2
:10224C00F8BC08BC9E467047F8B500BFF8BC08BC8B
:04225C009E467047E3
:102260005573696E672043414E2049443A200D0062
:102270005465737400000000020304050607080992
:102280000A0B0C0D0E0F10100000000000000000E3
:10229000010203040607080900000000010203040C
:0422A0003101000800
:0422A4000D01000820
:0C22A8000024F400100000000100000001
:04000005080021A529
:00000001FF
